:020000040000FA
:100000000C9462000C948A000C948A000C948A0070
:100010000C948A000C948A000C948A000C948A0038
:100020000C948A000C948A000C948A000C948A0028
:100030000C948A000C948A000C948A000C948A0018
:100040000C944A020C948A000C94BA020C94940208
:100050000C948A000C948A000C948A000C948A00F8
:100060000C948A000C948A000000000024002700F1
:100070002A0000000000250028002B0000000000DE
:1000800023002600290004040404040404040202DA
:100090000202020203030303030301020408102007
:1000A0004080010204081020010204081020000012
:1000B0000008000201000003040700000000000027
:1000C0000000040511241FBECFEFD8E0DEBFCDBF76
:1000D00011E0A0E0B1E0EEE9FAE002C005900D9277
:1000E000A431B107D9F721E0A4E1B1E001C01D922C
:1000F000A63DB207E1F710E0C2E6D0E004C02197C8
:10010000FE010E944705C136D107C9F70E94EC02E3
:100110000C944D050C940000833081F028F481305C
:1001200099F08230A9F008958730A9F08830C9F09D
:100130008430B1F4809180008F7D03C08091800075
:100140008F7780938000089584B58F7784BD08955C
:1001500084B58F7DFBCF8091B0008F778093B00006
:1001600008958091B0008F7DF9CFCF93DF93282F32
:1001700030E0F901E255FF4F8491F901E656FF4F57
:10018000D491F901EA57FF4FC491CC23A1F081111A
:100190000E948C00EC2FF0E0EE0FFF1FE458FF4FA1
:1001A000A591B491EC91ED2381E090E009F480E019
:1001B000DF91CF91089580E090E0FACF1F93CF9325
:1001C000DF93282F30E0F901E255FF4F8491F901C8
:1001D000E656FF4FD491F901EA57FF4FC491CC2363
:1001E000A9F0162F81110E948C00EC2FF0E0EE0F89
:1001F000FF1FEE58FF4FA591B4918FB7F894EC9183
:10020000111108C0D095DE23DC938FBFDF91CF9111
:100210001F910895DE2BF8CFCF93DF9390E0FC0180
:10022000E656FF4F24918A579F4FFC018491882303
:10023000D1F090E0880F991FFC01E859FF4FA5917C
:10024000B491FC01EE58FF4FC591D491623071F426
:100250009FB7F8943C91822F809583238C93E881FB
:100260002E2B28839FBFDF91CF9108958FB7F894ED
:10027000EC912E2B2C938FBFF6CFAF92BF92CF92E3
:10028000DF92EF92FF920F931F93CF93DF936C0156
:100290007B018B01040F151FEB015E01AE18BF0837
:1002A000C017D10759F06991D601ED91FC910190E9
:1002B000F081E02DC6010995892B79F7C501DF9101
:1002C000CF911F910F91FF90EF90DF90CF90BF9053
:1002D000AF900895FC01538D448D252F30E0842F7D
:1002E00090E0821B930B541710F0CF96089501975E
:1002F0000895FC01918D828D981761F0A28DAE0F4B
:10030000BF2FB11D5D968C91928D9F5F9F73928FD1
:1003100090E008958FEF9FEF0895FC01918D828DFD
:10032000981731F0828DE80FF11D858D90E00895CA
:100330008FEF9FEF0895FC01918D228D892F90E022
:10034000805C9F4F821B91098F739927089584E1E8
:1003500091E00E949B0121E0892B09F420E0822F8B
:10036000089580E090E0892B29F00E94A701811177
:100370000C9400000895FC01A48DA80FB92FB11DA5
:10038000A35ABF4F2C91848D90E001968F739927CB
:10039000848FA689B7892C93A089B1898C918370A9
:1003A00080648C93938D848D981306C00288F389A2
:1003B000E02D80818F7D80830895EF92FF920F93CF
:1003C0001F93CF93DF93EC0181E0888F9B8D8C8D01
:1003D00098131AC0E889F989808185FF15C09FB7F5
:1003E000F894EE89FF896083E889F98980818370B8
:1003F000806480839FBF81E090E0DF91CF911F9167
:100400000F91FF90EF900895F62E0B8D10E00F5F87
:100410001F4F0F731127E02E8C8D8E110CC00FB65D
:1004200007FCFACFE889F989808185FFF5CFCE01F5
:100430000E94BB01F1CFEB8DEC0FFD2FF11DE35AB4
:10044000FF4FF0829FB7F8940B8FEA89FB89808178
:100450008062CFCFCF93DF93EC01888D8823B9F0F2
:10046000AA89BB89E889F9898C9185FD03C08081BF
:1004700086FD0DC00FB607FCF7CF8C9185FFF2CF3C
:10048000808185FFEDCFCE010E94BB01E9CFDF91D6
:10049000CF9108951F920F920FB60F9211242F93B0
:1004A0003F938F939F93AF93BF938091D20190918D
:1004B000D301A091D401B091D5013091D10123E0B5
:1004C000230F2D3758F50196A11DB11D2093D101A1
:1004D0008093D2019093D301A093D401B093D5011E
:1004E0008091CD019091CE01A091CF01B091D0012A
:1004F0000196A11DB11D8093CD019093CE01A093D3
:10050000CF01B093D001BF91AF919F918F913F9157
:100510002F910F900FBE0F901F90189526E8230F74
:100520000296A11DB11DD2CF1F920F920FB60F924E
:1005300011242F933F934F935F936F937F938F93E8
:100540009F93AF93BF93EF93FF9384E191E00E9459
:10055000BB01FF91EF91BF91AF919F918F917F91DF
:100560006F915F914F913F912F910F900FBE0F9020
:100570001F9018951F920F920FB60F9211242F9370
:100580008F939F93EF93FF93E0912401F0912501C6
:100590008081E0912A01F0912B0182FD1BC09081A6
:1005A00080912D018F5F8F7320912E01821741F072
:1005B000E0912D01F0E0EC5EFE4F958F80932D01D0
:1005C000FF91EF919F918F912F910F900FBE0F9000
:1005D0001F9018958081F4CF789484B5826084BD93
:1005E00084B5816084BD85B5826085BD85B5816037
:1005F00085BD80916E00816080936E0010928100B5
:10060000809181008260809381008091810081606F
:100610008093810080918000816080938000809130
:10062000B10084608093B1008091B00081608093BC
:10063000B00080917A00846080937A0080917A0083
:10064000826080937A0080917A00816080937A0042
:1006500080917A00806880937A001092C10061E0F6
:100660008AE00E940C0161E08BE00E940C0161E0D5
:100670008CE00E940C0162E088E00E940C0162E0C4
:1006800089E00E940C0162E081E10E940C0162E0BD
:1006900082E00E940C0162E083E00E940C0162E0B3
:1006A00086E00E940C0162E087E00E940C0162E09B
:1006B00084E00E940C0161E082E10E940C0161E093
:1006C00083E10E940C01E0912401F091250182E078
:1006D0008083E0912001F09121011082E0912201BC
:1006E000F09123018FEC808310922C01E09128017E
:1006F000F091290186E08083E0912601F0912701A5
:10070000808180618083E0912601F09127018081C2
:1007100088608083E0912601F091270180818068C4
:100720008083E0912601F091270180818F7D808375
:1007300088E00E94B500892B09F09FC080E0E82E78
:1007400080E0F82EC1E09EE1492E512C612C712CE5
:1007500022E0C22ED12CAA24A394B12C81E10E94C4
:10076000B500892B79F52FB7F8948091D20190913B
:10077000D301A091D401B091D5012FBF4091F501D3
:100780005091F6016091F7017091F801841B950B6F
:10079000A60BB70B883C9105A105B10598F02FB7C2
:1007A000F8948091D2019091D301A091D401B0919D
:1007B000D5012FBF8093F5019093F601A093F70127
:1007C000B093F80182E00E94B500892B09F06EC059
:1007D000C093C3011092C20189E00E94B500892B29
:1007E00051F41092C3014092C8015092C901609225
:1007F000CA017092CB0184E00E94B500892B51F4AC
:10080000C093C10161E082E10E94DE0061E083E10A
:100810000E94DE0086E00E94B500892B09F081C0AD
:100820008091C101882309F45EC06091C80190E005
:1008300080E00E9439051092C1018091CC0188238B
:1008400009F4BDC04091C8015091C9016091CA012D
:100850007091CB018091C4019091C501A091C60116
:10086000B091C701481759076A077B070CF08DC084
:10087000C093C3011092C20191C060E08BE00E945E
:10088000DE0061E08CE00E94DE0061E08AE00E9410
:100890000C0161E08AE00E94DE001092C801109213
:1008A000C9011092CA011092CB0142CF83E00E948D
:1008B000B5001092C301892B99F4C093C20188E05E
:1008C0000E94B500892B09F096CF1092C2011092B8
:1008D000C8011092C9011092CA011092CB018BCFAE
:1008E0001092C20188CFB0920101A092000161E094
:1008F00082E10E94DE0060E083E10E94DE00C0939E
:10090000CC0190E080E00E94310590E0B0E0A0E0F2
:100910008093C4019093C501A093C601B093C70111
:100920008CCF87E00E94B500892BD1F48091C10162
:10093000882329F06091C80184E090E07ACFD092BA
:100940000101C092000160E082E10E94DE0061E0EE
:1009500083E10E94DE00C093CC0184E090E0D3CF1D
:10096000009100011091010161E00130110509F0D1
:1009700060E082E10E94DE0061E00230110509F0D2
:1009800060E083E10E94DE0058CF84179507A60738
:10099000B70784F41092C301C093C201E114F104BB
:1009A00009F4DCCE0E94A701882309F4D7CE0E9467
:1009B0000000D4CE1092CC011092C3015BCF809185
:1009C000C301882389F061E08BE00E94DE0060E0D3
:1009D0008CE00E94DE0061E08AE00E940C0161E090
:1009E0008AE00E94DE00DACF8091C201882331F0D4
:1009F00060E08BE00E94DE0061E0EACF61E08AE027
:100A00000E940C0160E0ECCFE4E1F1E0138212827D
:100A100088EE93E0A0E0B0E084839583A683B7835B
:100A200086E091E09183808385EC90E095878487D0
:100A300084EC90E09787868780EC90E0918B808BA8
:100A400081EC90E0938B828B82EC90E0958B848B91
:100A500086EC90E0978B868B118E128E138E148EFF
:100A60000895F999FECF92BD81BDF89A992780B576
:100A70000895262FF999FECF1FBA92BD81BD20BDE2
:100A80000FB6F894FA9AF99A0FBE01960895EE0FF0
:100A9000FF1F0590F491E02D0994F894FFCF010019
:100AA00000000000DD013D016A012A029B0179017D
:020AB0008D01B6
:107E0000112484B714BE81FFF0D085E080938100F7
:107E100082E08093C00088E18093C10086E0809377
:107E2000C20080E18093C4008EE0C9D0259A86E02C
:107E300020E33CEF91E0309385002093840096BBD3
:107E4000B09BFECF1D9AA8958150A9F7CC24DD24C4
:107E500088248394B5E0AB2EA1E19A2EF3E0BF2EE7
:107E6000A2D0813461F49FD0082FAFD0023811F036
:107E7000013811F484E001C083E08DD089C08234E0
:107E800011F484E103C0853419F485E0A6D080C0E4
:107E9000853579F488D0E82EFF2485D0082F10E0AE
:107EA000102F00270E291F29000F111F8ED06801E7
:107EB0006FC0863521F484E090D080E0DECF843638
:107EC00009F040C070D06FD0082F6DD080E0C81688
:107ED00080E7D80618F4F601B7BEE895C0E0D1E017
:107EE00062D089930C17E1F7F0E0CF16F0E7DF06D8
:107EF00018F0F601B7BEE89568D007B600FCFDCFD4
:107F0000A601A0E0B1E02C9130E011968C91119780
:107F100090E0982F8827822B932B1296FA010C0160
:107F200087BEE89511244E5F5F4FF1E0A038BF0790
:107F300051F7F601A7BEE89507B600FCFDCF97BE46
:107F4000E89526C08437B1F42ED02DD0F82E2BD052
:107F50003CD0F601EF2C8F010F5F1F4F84911BD097
:107F6000EA94F801C1F70894C11CD11CFA94CF0C13
:107F7000D11C0EC0853739F428D08EE10CD085E9AC
:107F80000AD08FE07ACF813511F488E018D01DD067
:107F900080E101D065CF982F8091C00085FFFCCF94
:107FA0009093C60008958091C00087FFFCCF809118
:107FB000C00084FD01C0A8958091C6000895E0E648
:107FC000F0E098E1908380830895EDDF803219F02E
:107FD00088E0F5DFFFCF84E1DECF1F93182FE3DFCA
:107FE0001150E9F7F2DF1F91089580E0E8DFEE27F6
:047FF000FF270994CA
:027FFE00040479
:00000001FF
